:100000000C9495060C944F110C9428110C94BD0679
:100010000C94BD060C94BD060C94BD060C94BD0654
:100020000C94BD060C94BD060C94BD060C94BD0644
:100030000C94BD060C94BD060C94BD060C94BD0634
:100040000C9451120C94BD060C94F6100C94D01024
:100050000C94BD060C94BD060C94BD060C94BD0614
:100060000C942B0D0C94BD0600000000003E5B4F6D
:100070005B3E3E6B4F6B3E1C3E7C3E1C183C7E3C08
:10008000181C577D571C1C5E7F5E1C00183C180016
:10009000FFE7C3E7FF0018241800FFE7DBE7FF30A6
:1000A000483A060E2629792926407F050507407F14
:1000B00005253F5A3CE73C5A7F3E1C1C08081C1C87
:1000C0003E7F14227F22145F5F005F5F06097F017D
:1000D0007F006689956A606060606094A2FFA29468
:1000E00008047E040810207E201008082A1C080836
:1000F0001C2A08081E101010100C1E0C1E0C303884
:100100003E3830060E3E0E06000000000000005F84
:1001100000000007000700147F147F14242A7F2AA0
:100120001223130864623649562050000807030062
:10013000001C2241000041221C002A1C7F1C2A08AE
:10014000083E080800807030000808080808000011
:1001500060600020100804023E5149453E00427F85
:10016000400072494949462141494D331814127FD4
:100170001027454545393C4A494931412111090774
:100180003649494936464949291E000014000000F5
:1001900040340000000814224114141414140041C7
:1001A00022140802015909063E415D594E7C121184
:1001B000127C7F494949363E414141227F414141BC
:1001C0003E7F494949417F090909013E4141517337
:1001D0007F0808087F00417F41002040413F017FA8
:1001E000081422417F404040407F021C027F7F0470
:1001F00008107F3E4141413E7F090909063E4151B9
:10020000215E7F09192946264949493203017F01A8
:10021000033F4040403F1F2040201F3F4038403FA9
:10022000631408146303047804036159494D4300BF
:100230007F4141410204081020004141417F0402F6
:10024000010204404040404000030708002054548D
:1002500078407F284444383844444428384444286B
:100260007F385454541800087E090218A4A49C78BE
:100270007F0804047800447D40002040403D007F1A
:100280001028440000417F40007C047804787C08FA
:100290000404783844444438FC18242418182424CE
:1002A00018FC7C08040408485454542404043F44B3
:1002B000243C4040207C1C2040201C3C4030403CE2
:1002C00044281028444C9090907C4464544C440042
:1002D00008364100000077000000413608000201A6
:1002E0000204023C2623263C1EA1A161123A404092
:1002F000207A38545455592155557941225454780F
:1003000042215554784020545579400C1E527212A7
:100310003955555559395454545939555454580030
:1003200000457C410002457D420001457C407D1234
:1003300011127DF0282528F07C5455450020545496
:100340007C547C0A097F4932494949323A44444441
:100350003A324A4848303A4141217A3A424020787C
:10036000009DA0A07D3D4242423D3D4040403D3C7D
:1003700024FF2424487E4943662B2FFC2F2BFF09A2
:1003800029F620C0887E0903205454794100004496
:100390007D413048484A32384040227A007A0A0A81
:1003A000727D0D19317D2629292F282629292926F4
:1003B00030484D4020380808080808080808382F39
:1003C00010C8ACBA2F102834FA00007B00000814C3
:1003D0002A142222142A14085500550055AA55AA99
:1003E00055AAFF55FF55FF000000FF00101010FF39
:1003F00000141414FF001010FF00FF1010F010F094
:10040000141414FC001414F700FF0000FF00FF1484
:1004100014F404FC141417101F10101F101F1414D0
:10042000141F00101010F0000000001F101010101A
:100430001F10101010F010000000FF10101010100E
:1004400010101010FF10000000FF140000FF00FF4C
:1004500000001F10170000FC04F4141417101714E8
:1004600014F404F40000FF00F7141414141414140A
:10047000F700F7141414171410101F101F1414147D
:10048000F4141010F010F000001F101F0000001FE7
:1004900014000000FC140000F010F01010FF10FF1A
:1004A000141414FF141010101F00000000F010FFAF
:1004B000FFFFFFFFF0F0F0F0F0FFFFFF0000000093
:1004C00000FFFF0F0F0F0F0F3844443844FC4A4A17
:1004D0004A347E02020606027E027E0263554941CC
:1004E000633844443C04407E201E2006027E020203
:1004F00099A5E7A5991C2A492A1C4C7201724C3017
:100500004A4D4D303048784830BC625A463D3E49ED
:100510004949007E0101017E2A2A2A2A2A44445F91
:10052000444440514A444040444A51400000FF0185
:1005300003E080FF000008086B6B08361236243693
:10054000060F090F060000181800000010100030F8
:1005500040FF0101001F01011E00191D1712003C80
:100560003C3C3C000000000000000000240027008C
:100570002A00DB40A4A62EAFDA0281DA1281DA0269
:10058000818F2000A1C8D300408DAED580A8000087
:100590000000250028002B00000060000000000083
:1005A000000000000000000000E00000000000006B
:1005B0000000000000000001E0000000000000005A
:1005C00000000000000001F000000000000000003A
:1005D000000000000003F000000000000000000028
:1005E0000000000007F00000000000000000000014
:1005F00000000007F80000000000000000000000FC
:1006000000000FF800000003C0007E000001E000C1
:100610007F0FF800000003C000FE000001E000FFB3
:10062000EFF800000003C000FE000001E000FFFF43
:10063000F800000003C000F00000000F007FFE7F04
:10064000C0000003C000F00000000F003FFE7FF874
:100650003FF1FBCFFCFEF3BC3DEFE01FFE7FFF7FD1
:10066000FBFFDFFEFEFFBC3DEFE01FC6FFFF7FFB91
:10067000FFDFFEFEFFBC3DEFE00FE3C7FE787BC36C
:10068000DE1EF0FFBC3DEF0007FF87FC787BC3DE7A
:100690001EF0F83C3DEF0001FFFFF0007BC3C01EE1
:1006A000F0F03C3DEF0001F37FE03FFBC3CFFEF0F5
:1006B000F03C3DEF0003E33F807FFBC3DFFEF0F043
:1006C0003C3DEF0007E73C00787BC3DE1EF0F03CCA
:1006D0003DEF0007FFBE00787BC3DE1EF0F03C3D1F
:1006E000EF0007FFFE00787BC3DE1EF0F03C3DEF1D
:1006F000000FFFFE007FFBFFDFFEF0F03FFDEFE0AD
:100700000FFFFF007FFBFFDFFEF0F03FFDEFE00F8C
:10071000F9FF003E79F9CF9EF0F01F3DE7E01FF1B1
:10072000FF0000000000000000000000001F80FF2C
:10073000007FFFFFFFFFFFFFFFFFFFE01C007F00C8
:100740007FFFFFFFFEB46D888D18E000001F007F63
:10075000FFFFFFFE95AD7DB577E000000F007FFF46
:10076000FFFFFEA5AD9D8D19E0000006007FFFFF95
:10077000FFFEB5ADEDB57EE0000000000001800099
:1007800000000000000000000380000000000000E6
:1007900000000007C000000000000000000007C0CB
:1007A0000000000000000000000FC000000000007A
:1007B000000000001FE00000000000000000001F1B
:1007C000E00000000000000000003FE0000000002A
:1007D00000000000003FF0000000000000000000EA
:1007E0007FF0000000000000001FF87FF000000014
:1007F000000000003FFE7FF0000000000000003F0E
:10080000FF7FF0000000000000001FFFFBE0000081
:1008100000000000000FFFF9FFC000000000000012
:100820000FFFF9FFF800000000000007FFF1FFFFD5
:1008300000000000000003FC73FFFF8000000000C8
:100840000001FE3FFFFF80000000000000FF1E0FC0
:10085000FF000000000000007FFE1FFC0000000001
:100860000000003FFFFFF8000000000000000FDF65
:10087000FFE0000000000000001F19FFC0000000A2
:10088000000000003F3CFF00000000000000007E70
:100890007CF800000000000000007FFE7C000000EB
:1008A0000000000000FFFFFC00000000000000004E
:1008B000FFFFFE0000000000000000FFFFFE000040
:1008C000000000000001FFEFFE000000000000003B
:1008D00001FFCFFE0000000000000003FF07FE0044
:1008E00000000000000003FC07FE00000000000004
:1008F0000003F003FE00000000000000018000FE85
:10090000000000000000000000007E000000000069
:1009100000000000003E0000000000000000000099
:100920000C000000000000078000FC000003C00075
:100930000000078001FC000003C0000000078001E8
:10094000FC000003C0000000078001E00000001E62
:10095000000000078001E00000001E007FE3F79F19
:10096000F9FDE7787BDFC0FFF7FFBFFDFDFF787B78
:10097000DFC0FFF7FFBFFDFDFF787BDFC0F0F7872B
:10098000BC3DE1FF787BDE00F0F787BC3DE1F0780D
:100990007BDE0000F787803DE1E0787BDE007FF7BB
:1009A000879FFDE1E0787BDE00FFF787BFFDE1E098
:1009B000787BDE00F0F787BC3DE1E0787BDE00F07D
:1009C000F787BC3DE1E0787BDE00F0F787BC3DE1D6
:1009D000E0787BDE00FFF7FFBFFDE1E07FFBDFC0DB
:1009E000FFF7FFBFFDE1E07FFBDFC07CF3F39F3D3E
:1009F000E1E03E7BCFC000000000000000000000EE
:100A000000FFFFFFFFFFFFFFFFFFFFC0FFFFFFFF34
:100A1000FD68DB111A31C0FFFFFFFFFD2B5AFB6A97
:100A2000EFC0FFFFFFFFFD4B5B3B1A33C0FFFFFF33
:100A3000FFFD6B5BDB6AFDC0526F6D61696E205418
:100A40000032303139005620312E30007465737415
:100A50006572004443206D6F746F7200FFFFFFFFEB
:100A6000FFFFFFFFFFFFFFFFFFFFFFFFFFFFFFFF96
:100A7000FFFFFFFFFFFFFFFFFFFFFFFFFFFFFFFF86
:100A8000FFFFFFFFFFFFFFFFFFFFFFFFFFFFFFFF76
:100A9000FFFFFFFFFFFFFFFFFFFFFFFFFFFFFFFF66
:100AA000FFFFFFFFFFFFFFFFFFFFFFFFFFFFFFFF56
:100AB000FFFFFFFFFFFFFFFFFFFFFFFFFFFFFFFF46
:100AC000FFFFFFFFFFFFFFFFFFFFFFE0FFFFFFFF55
:100AD000FFFFF000FFFFFFFFFFFE0000FFFFFFFF33
:100AE000FFE00000FFFFFFFFFF000000FFFFFFFF30
:100AF000F8000000FFFFFFFFC0000000FFFFFFFE47
:100B000000000000FFFFFFF8001FC000FFFFFFC054
:100B100003FFF000FFFFFF003FFFF000FFFFFC01BD
:100B2000FFFFF000FFFFF00FFFFFF000FFFFC07FAF
:100B3000FFFFE000FFFF01FFFFFFC000FFFC07FF1A
:100B4000FFFF8000FFF01FFFFFFF0001FFC07FFFDE
:100B5000FFFE0003FF81FFFFFFFC000FFE071FFFEA
:100B6000FFF0001FF81807FFFFE0007FF03007FFDD
:100B7000FF8000FFE0E007FFFE0003FF81C007FFEA
:100B8000F8000FFF03C007FFE0001FFF07C00FFFC3
:100B900080007F3F0FE01FFE0001FF3F1FF0FFF8C6
:100BA00000073F3F3FFFFFC0001F3F3F3FFFFE00EA
:100BB00000FF3F3F3FFFF00003F800033FFF00004E
:100BC0000FC800030FE000007F8F3F3F00000001CF
:100BD000FF8F3F3F0000000FFF8F3F3F0000007D71
:100BE000FF8F3F3F000003FCFF8F3F3F00003FFCB3
:100BF000FF8F3F3F0003FFFCFF8F3F3F00FFFFFCE5
:100C0000FF8F3F3FFFFFFFFCFF8F3F3FFFFFFFFCDA
:100C1000FF8F3F3FFFFFFFFCFF8F3F3FFFFFFFFCCA
:100C2000FF8F3F3FFFFFFFFCFF0F3F3FFFFFFFFC3A
:100C30007E0F3F1FFFFFFFFE000F0783FFFFFFFF39
:100C400001DFC7C3FFFFFFFFFFFFFFFFFFFFFFFF46
:100C5000FFFFFFFFFFFFFFFFFFFFFFFF5353443185
:100C600033303620616C6C6F636174696F6E20661F
:100C700061696C6564007300696E007265766F006F
:100C80006D41007368656420493D005465737420AC
:100C900066696E692D003D005D005B006D41004995
:100CA0003D0070726F6772657373005465737420D2
:100CB000696E005265766F0044757261005370650D
:100CC0006564004D6F6465004F4B00000103070F22
:100CD0001F3F7F0080C0E0F0F8FCFE2200FF2100F3
:100CE00000000008000201000003040700000000EB
:100CF00000000000010204081020408001020408E6
:100D0000102001020408102000000000230026002B
:100D1000290004040404040404040202020202027E
:100D20000303030303038C217D2111241FBECFEF96
:100D3000D8E0DEBFCDBF11E0A0E0B1E0E0E4F9E42F
:100D400002C005900D92A83EB107D9F723E0A8EEA6
:100D5000B1E001C01D92AA39B207E1F716E0C4E97B
:100D6000D6E004C02197FE010E948D24C339D1072B
:100D7000C9F70E945E1C0C94D2220C9400000895C6
:100D8000FC016370658B8481958126813781613098
:100D900039F0633029F0918780873387228708955F
:100DA000318720879387828708952F923F924F92B1
:100DB0005F926F927F928F929F92AF92BF92CF92EB
:100DC000DF92EF92FF920F931F93CF93DF93CDB7F4
:100DD000DEB76C970FB6F894DEBF0FBECDBF9C8F09
:100DE0008B8F5B011A011F830E833701C982DC01DF
:100DF00058964D915C9159974115510509F0E5C000
:100E000018968D919C911997681779070CF0CAC1B3
:100E10001A968D919C911B97281639060CF0C2C129
:100E20008C2C912CFB0136E0C39EE00DF11D1124AA
:100E3000FB87EA871E161F060CF0B4C1C40133E01D
:100E4000880F991F3A95E1F79D878C87820D931D36
:100E5000181619060CF0A6C157968C91811103C083
:100E6000203B08F02F5FAB8DBC8DED91FC9111976D
:100E70000284F385E02DCD012A8F09952A8DB5E0F6
:100E80002B9F90011124F5013596FF87EE87BB82D9
:100E9000AA822501A9014A195B09598B488BC10116
:100EA00008969B8B8A8BE889F989E40DF51DE85932
:100EB000FF4F9491988761013D822C82A885A0FF05
:100EC00013C0AB8DBC8DED91FC91B981B13031F483
:100ED0000484F585E02D2E813F8116C00684F785B8
:100EE000E02DEE80FF801AC0EE81FF816E167F0636
:100EF000F1F0AB8DBC8DED91FC91B981B13051F425
:100F00000484F585E02D9301A601B2018B8D9C8DA3
:100F100009950DC00684F785E02D730184019401C5
:100F20004C815D816A817B818B8D9C8D0995E885E3
:100F3000E695E887FFEFCF1ADF0A2C813D81280D67
:100F4000391D3D832C834A895B89C416D50609F077
:100F5000B5CF5FEF451A550A8A819B81880D991D8F
:100F60009B838A83AE85BF854A165B0609F09BCFBB
:100F7000EE81FF816E167F0609F4F2C0EB8DFC8DC9
:100F8000A081B181F981F13079F4B5016B5F7F4FB8
:100F90005096ED91FC915197830128E030E0A1013A
:100FA0008B8D9C8D0995DCC06A857B8568197909D4
:100FB0001E96ED91FC911F9773010C851D85940180
:100FC000A1018B8D9C8D0995CBC0FA01349694912B
:100FD000329765917491291BCB01B7E02B9F800D4F
:100FE000911D1124FA01259134913B8B2A8BFC0130
:100FF000459154915B834A83FC013296C4903196AB
:1010000054915E87329614913196D49089818230C2
:1010100058F0612E012E000C7708AD2D0D2C000C20
:10102000BB0BB987A88704C019861886612C712C60
:10103000AB8DBC8DED91FC9111970284F385E02D71
:10104000CD010995B9818B2E912C689CC001699CBA
:10105000900D789C900D1124FC01EA0DFB1DFD877D
:10106000EC871C82712C612CE12F110FFF0B950175
:101070002E0F3F1F3B872A87AC0CB11CA5014E0FDA
:101080005F1F5F8B4E8BC1018D0D911DD7FC9A9513
:10109000998F888F4E85641608F062C0862D90E087
:1010A00048855985480F591F489D9001499D300D2D
:1010B000589D300D1124D901A20DB31DB98BA88BF9
:1010C000AA84BB844C845D84DC80BA85DB1AE88DFD
:1010D000F98DE80FF91FFD8BEC8B8D2D8A0D2E8974
:1010E0003F89A216B306B9F1877061F48A819B81AA
:1010F0000196EA89FB89AA81BB81EA0FFB1F7490E4
:101100009B838A8377FE20C0AB8DBC8DED91FC91D3
:10111000B981B13061F40484F585E02D2E813F81E1
:101120004C895D89B5018B8D9C8D09950DC0068418
:10113000F785E02DEE80FF8084019401488959896C
:10114000B2018B8D9C8D0995770CEFEFAE1ABE0A1C
:10115000480C591CC2CF3C813C0D3C8363949ACF10
:10116000AB8DBC8DED91FC9111970688F789E02D30
:10117000CD016C960FB6F894DEBF0FBECDBFDF91E8
:10118000CF911F910F91FF90EF90DF90CF90BF9084
:10119000AF909F908F907F906F905F904F903F9017
:1011A0002F9009946C960FB6F894DEBF0FBECDBF9A
:1011B000DF91CF911F910F91FF90EF90DF90CF9033
:1011C000BF90AF909F908F907F906F905F904F9067
:1011D0003F902F900895AF92BF92CF92EF92FF92DF
:1011E0000F931F93CF93DF93EC01262F888D998D5A
:1011F000009709F040C06A3059F41D861C862C897E
:101200008E859F8538E0239F800D911D112441C05C
:101210006D3009F4AAC08E898823C1F03C898C8581
:101220009D8546E0349F800D911D11244885598588
:10123000481759075CF41D861C868E859F8548E0FB
:10124000349F800D911D11249F878E87EA88FB882B
:10125000088919894E855F856C857D85CC88CE018E
:101260000E94D5062C898C859D8536E0239F800DB4
:10127000911D112442C06A3079F41D861C862C8988
:10128000FC013696E4918E859F852E9F800D911DE1
:1012900011249F878E8769C06D3009F466C0FC01F8
:1012A00034963491631708F460C03196E491E617E0
:1012B00008F45BC0FC013296A590B490462F50E034
:1012C000431B510937E0349FB001359F700D112445
:1012D000A60EB71EF501329634913196E491332370
:1012E00011F0E1110DC0F5013496E4912C898C8543
:1012F0009D85E29F800D911D11249D878C8735C0AF
:10130000F501359644915E89552311F16C89E32FDF
:10131000F0E0E40FF11D47FDFA956E9FD0016F9F3D
:10132000B00D11244C855D854A0F5B1FE885F9855A
:10133000E417F5076CF41D861C86FC013696E491D3
:101340008E859F856E9F800D911D11249F878E87AE
:10135000EA88FB88088919894E855F856C857D85BB
:10136000CC88CE010E94D506BECF81E090E0DF910F
:10137000CF911F910F91FF90EF90CF90BF90AF90C2
:1013800008956F927F928F929F92AF92BF92CF9269
:10139000DF92EF92FF920F931F93CF93DF93EC01B5
:1013A0004B015A0169013801E881F9810284F38512
:1013B000E02D0995E881F9810288F389E02D870104
:1013C0009601A501B401CE010995E881F981A50135
:1013D000460D571D415051090288F389E02D9601B1
:1013E000B401CE010995E881F9810088F189E02DE9
:1013F0009301A501B401CE010995E881F981C80CDA
:10140000D91CB601615071090088F189E02D930162
:10141000A501CE010995E881F9810688F789E02DBB
:10142000CE01DF91CF911F910F91FF90EF90DF9050
:10143000CF90BF90AF909F908F907F906F900994C6
:10144000CF92DF92EF92FF920F931F93CF93DF9390
:1014500000D000D000D0CDB7DEB76C01DC01ED913B
:10146000FC916217730789F4041715072CF4942F65
:10147000852FA801092F182F041B150B98012F5F2A
:101480003F4F048CF58DE02D12C04017510709F530
:10149000261737072CF4962F872FB901292F382FBD
:1014A000261B370B2F5F3F4F068CF78DE02D8701F2
:1014B000C601099526960FB6F894DEBF0FBECDBFC4
:1014C000DF91CF911F910F91FF90EF90DF90CF9020
:1014D00008950284F385E02D2D833E834B835C8346
:1014E00069837A830995D601ED91FC910488F58989
:1014F000E02D2D813E814B815C8169817A81C6011D
:101500000995D601ED91FC910688F789E02DC60179
:1015100026960FB6F894DEBF0FBECDBFDF91CF91F8
:101520001F910F91FF90EF90DF90CF900994EF9271
:10153000FF920F931F93DC01ED91FC9111971A9686
:101540000D911C911B9718962D913C91199700A015
:10155000F1A1E02D7B0140E050E060E070E00995F2
:101560001F910F91FF90EF9008954F925F926F92AD
:101570007F928F929F92AF92BF92CF92DF92EF9223
:10158000FF920F931F93CF93DF9300D0CDB7DEB7B9
:101590006C015A0139014801DC01ED91FC91028492
:1015A000F385E02D69837A8309956981462E7A81D6
:1015B000572E640C751CD601ED91FC91461457040E
:1015C0006CF40088F189E02D87019401A501B20136
:1015D000C6010995BFEF4B1A5B0AEDCF0688F78964
:1015E000E02DC6010F900F90DF91CF911F910F91C9
:1015F000FF90EF90DF90CF90BF90AF909F908F9033
:101600007F906F905F904F900994AF92BF92CF926E
:10161000DF92EF92FF920F931F93CF93DF9300D04F
:1016200000D0CDB7DEB75C016901DC01ED91FC9122
:101630000284F385E02D4B835C8369837A8309956B
:10164000D501ED91FC9169817A819B012C0D3D1DA5
:10165000215031090488F589E02D78014B815C81A6
:101660008A01C5010995D501ED91FC910688F7899C
:10167000E02DC5010F900F900F900F90DF91CF914B
:101680001F910F91FF90EF90DF90CF90BF90AF90A0
:101690000994AF92BF92CF92DF92EF92FF920F9395
:1016A0001F93CF93DF9300D000D0CDB7DEB75C019E
:1016B0006901DC01ED91FC910284F385E02D4B83FF
:1016C0005C8369837A830995D501ED91FC914B8107
:1016D0005C81C40ED51EB1E0CB1AD1080488F5890F
:1016E000E02D7801860169817A819B01C501099508
:1016F000D501ED91FC910688F789E02DC5010F9089
:101700000F900F900F90DF91CF911F910F91FF904D
:10171000EF90DF90CF90BF90AF9009940895EF9233
:10172000FF920F931F93DC01ED91FC9100A0F1A1BA
:10173000E02D09951F910F91FF90EF9008950F9361
:101740001F93DC01ED91FC91068CF78DE02D09953E
:101750001F910F9108950F931F93DC01ED91FC9160
:10176000048CF58DE02D09951F910F910895DC01F2
:10177000ED91FC910084F185E02D099408952F925C
:101780003F924F925F926F927F928F929F92AF9211
:10179000BF92CF92DF92EF92FF920F931F93CF935E
:1017A000DF9300D01F92CDB7DEB74C017B836A83F5
:1017B0006A01590117019801241B350B37FF03C03B
:1017C000319521953109C5014A815B81841B950BB7
:1017D00097FF03C091958195910951E05983821734
:1017E000930714F019820BC09A2D8B2D5801092FE5
:1017F000182F9A818B81DB82CA82C92ED82E8A81CA
:101800009B81A816B9065CF49C2D8D2D6801092FCB
:10181000182F9A818B81BB82AA82A92EB82E25010E
:10182000AA81BB814A1A5B0A38016C187D0877FED1
:1018300003C0719461947108720157FE03C0BFEF39
:10184000EB1AFB0AF594E794C016D1061CF00FEFD3
:101850001FEF1FC001E010E01CC0D401ED91FC910E
:10186000B9810484F585E02D9101BB23C1F04A8143
:101870005B81B601C4010995E618F708F7FE04C0BC
:10188000C00ED11EE40CF51CEA81FB813196FB836E
:10189000EA834A815B81A416B506FCF604C0A60162
:1018A0006A817B81E7CF0F900F900F90DF91CF91EE
:1018B0001F910F91FF90EF90DF90CF90BF90AF906E
:1018C0009F908F907F906F905F904F903F902F9060
:1018D000089585ED8093BC008091BC0084FDFCCF11
:1018E0001092EA01089540912F02262F30E0240F34
:1018F000311D21323105DCF42091EA012430C9F494
:10190000FC0180E090E0861758F430912F0221917D
:10191000DC01A35FBD4FA30FB11D2C930196F3CF44
:1019200080912F02680F60932F0280E0089581E07C
:10193000089582E00895089581E090E03091E901F2
:101940002091E801321710F480E090E091958195A4
:10195000910908958091E9019091E801891730F487
:101960008F5F8093E90180E090E008958FEF9FEF13
:1019700008958091E80190E02091E901821B91098E
:101980000895CF92DF92EF92FF920F931F93CF9320
:10199000DF937C01262F972F8A0180919A0288235A
:1019A00091F0C62FD72F6E01C40ED51ECC15DD05C4
:1019B00071F06991D701ED91FC910190F081E02DDA
:1019C000C7010995F3CF642F822F0E94730CC801C1
:1019D000DF91CF911F910F91FF90EF90DF90CF900B
:1019E0000895CF93DF931F92CDB7DEB7698320911F
:1019F0009A022223D1F020919702203240F021E078
:101A000030E0FC013383228380E090E015C08091B8
:101A10009802E82FF0E0E351FE4F998190838F5FA9
:101A2000809398028093970205C061E0CE010196F1
:101A30000E94730C81E090E00F90DF91CF910895A8
:101A400008958EBD00000DB407FEFDCF8EB508953C
:101A50008CBD9DBD08951F920F920FB60F92112459
:101A60002F933F934F935F936F937F938F939F93A6
:101A7000AF93BF93EF93FF938091B900887F803637
:101A800009F49CC068F5883209F45BC090F4803199
:101A900009F454C038F4882309F4F6C0883009F4F6
:101AA0004DC0F6C0883109F44CC0803209F45DC0E5
:101AB000EFC0803409F468C048F4803309F455C09D
:101AC000883309F0E5C080935402D8C0803509F40A
:101AD0004FC0883509F45DC0883409F0D9C0D6C03C
:101AE000883909F4C7C0A8F4883709F467C038F406
:101AF000883609F463C0803709F460C0C9C08838EB
:101B000009F4B8C0803909F45FC0803809F0C0C05A
:101B10005BC0803B09F486C038F4803A09F466C0A3
:101B2000883A09F47FC0B4C0803C09F4A7C0883C5F
:101B300009F4A4C0883B09F48AC0AAC08091770246
:101B400010C09091760280917502981770F5E0911F
:101B5000760281E08E0F80937602F0E0EB5AFD4F23
:101B600080818093BB0085EC86C0809354028EC038
:101B7000E091760281E08E0F809376028091BB0027
:101B8000F0E0EB5AFD4F80839091760280917502D0
:101B90006EC0E091760281E08E0F80937602809194
:101BA000BB00F0E0EB5AFD4F80838091EC01811186
:101BB0006DC081E08093EB0184EA61C083E0809393
:101BC000EA0110925302CFCF80915302803208F085
:101BD00051C0E091530281E08E0F809353028091B7
:101BE000BB00F0E0ED5CFD4F8083BDCF85EC8093C2
:101BF000BC001092EA0180915302803230F4E091EF
:101C00005302F0E0ED5CFD4F10826091530270E0F2
:101C1000E0913102F091320283E392E00995109253
:101C2000530236C084E08093EA0110923002109291
:101C30002F02E0912D02F0912E02099580912F0242
:101C4000811105C081E080932F0210920D02E09176
:101C5000300281E08E0F80933002F0E0E35FFD4FB1
:101C600080818093BB009091300280912F02981761
:101C700008F479CF85E88093BC000AC085EC809396
:101C8000BC001092EA0104C0109254020E94690C38
:101C9000FF91EF91BF91AF919F918F917F916F9144
:101CA0005F914F913F912F910F900FBE0F901F901A
:101CB00018959B01AC0160E074E284EF90E00E9413
:101CC000F422DA01C9014097A109B109B695A79597
:101CD000979587958093B8000895209197029091E9
:101CE0009902213208F04AC08091EA018111FCCFAB
:101CF00032E03093EA0131E03093EC013FEF309372
:101D000054021092760220937502ADEEB1E045E5E3
:101D100052E0FA013E2F341B321718F43D913193F3
:101D2000F9CF1092770220917702990F922B90931E
:101D300077029091EB01913061F41092EB01909158
:101D400077029093BB009091BC0093FDF8CF95EC87
:101D500001C095EE9093BC009091EA019230E1F3BE
:101D6000909154029F3F79F080915402803241F06B
:101D700080915402803331F084E005C081E003C0DB
:101D800082E001C083E010929802109297021092B4
:101D90009A020895FC01538D448D252F30E0842F45
:101DA00090E0821B930B541710F0CF960895019783
:101DB0000895FC01918D828D981761F0828DDF016D
:101DC000A80FB11D5D968C91928D9F5F9F73928F2E
:101DD00090E008958FEF9FEF0895FC01918D828D23
:101DE000981731F0828DE80FF11D858D90E00895F0
:101DF0008FEF9FEF0895FC01918D228D892F90E048
:101E0000805C9F4F821B91098F739927089580E012
:101E100090E0892B29F00E94B11081110C940000F0
:101E20000895CF92DF92EF92FF920F931F93CF937B
:101E3000DF936C017A018B01C0E0D0E0CE15DF05A5
:101E400089F0D8016D918D01D601ED91FC91019041
:101E5000F081E02DC6010995892B11F47E0102C0A5
:101E60002196ECCFC701DF91CF911F910F91FF9089
:101E7000EF90DF90CF9008950E945224FC01848D52
:101E8000DF01A80FB11DA35ABF4F2C91848D90E0A4
:101E900001968F739927848FA689B7892C93A0897F
:101EA000B1898C9180648C93938D848D981306C036
:101EB0000288F389E02D80818F7D80830895EF92E1
:101EC000FF920F931F93CF93DF93EC0181E0888FF4
:101ED0009B8D8C8D981305C0E889F989808185FDDB
:101EE00024C0F62E0B8D10E00F5F1F4F0F731127CC
:101EF000E02E8C8DE8120CC00FB607FCFACFE889F3
:101F0000F989808185FFF5CFCE010E943E0FF1CF88
:101F10008B8DFE01E80FF11DE35AFF4FF0820B8F0E
:101F2000EA89FB898081806207C0EE89FF8960832E
:101F3000E889F98980818064808381E090E0DF9185
:101F4000CF911F910F91FF90EF900895CF93DF9362
:101F5000EC01888D8823C9F0EA89FB89808185FDA1
:101F600005C0A889B9898C9186FD0FC00FB607FC02
:101F7000F5CF808185FFF2CFA889B9898C9185FF43
:101F8000EDCFCE010E943E0FE7CFDF91CF910895B4
:101F90004F925F926F927F92EF92FF920F931F93F7
:101FA000CF93DF93CDB7DEB7A1970FB6F894DEBF1E
:101FB0000FBECDBF7C01FA01CB0119A2223008F47B
:101FC0002AE08E010F5D1F4F422E512C612C712C87
:101FD000BF01A30192010E94F422F901CA0101503C
:101FE00011096A3014F4605D01C0695CD8016C931A
:101FF000232B242B252B61F7B801C7010E94BB10AE
:10200000A1960FB6F894DEBF0FBECDBFDF91CF9182
:102010001F910F91FF90EF907F906F905F904F9086
:102020000895EF92FF920F931F93CF93DF938C014C
:102030007B01C0E0D0E0F701EC0FFD1F6491662347
:1020400061F0D801ED91FC910190F081E02DC80183
:102050000995892B11F02196EECF60E671E0C80159
:102060000E94BB108C0F9D1FDF91CF911F910F918C
:10207000FF90EF900895089580E090E0089508950E
:10208000833081F028F4813099F08230A1F00895F6
:102090008730A9F08830B9F08430D1F48091800085
:1020A0008F7D03C0809180008F778093800008959A
:1020B00084B58F7702C084B58F7D84BD08958091EB
:1020C000B0008F7703C08091B0008F7D8093B00007
:1020D00008953FB7F8948091930290919402A09153
:1020E0009502B091960226B5A89B05C02F3F19F026
:1020F0000196A11DB11D3FBFBA2FA92F982F882788
:10210000820F911DA11DB11DBC01CD0142E0660FE2
:10211000771F881F991F4A95D1F708958091000174
:1021200020E4829FC001112480937C0080917A007A
:10213000806480937A0080917A0086FDFCCFA09124
:10214000780080917900B0E0B82B25E933E00E9457
:1021500072242FEF33E040E050E00E94D522C90105
:1021600008958BE992E00E94FB0E21E0892B09F48F
:1021700020E0822F08956115710579F0FB0101902F
:102180000020E9F73197AF01461B570BDC01ED91B9
:10219000FC910280F381E02D099480E090E00895A5
:1021A0001F920F920FB60F9211242F933F934F93CC
:1021B0005F936F937F938F939F93AF93BF93EF93AF
:1021C000FF938BE992E00E943E0FFF91EF91BF9148
:1021D000AF919F918F917F916F915F914F913F91BF
:1021E0002F910F900FBE0F901F9018951F920F9276
:1021F0000FB60F9211242F938F939F93EF93FF931A
:10220000E091AB02F091AC028081E091B102F091DB
:10221000B20282FD12C090818091B4028F5F8F73F1
:102220002091B502821751F0E091B402F0E0E5563A
:10223000FD4F958F8093B40201C08081FF91EF9193
:102240009F918F912F910F900FBE0F901F90189517
:102250001F920F920FB60F9211242F933F934F931B
:102260005F936F937F938F939F93AF93BF93EF93FE
:10227000FF93E0910801F09109010995FF91EF9119
:10228000BF91AF919F918F917F916F915F914F918E
:102290003F912F910F900FBE0F901F9018951F9296
:1022A0000F920FB60F9211242F933F934F935F938A
:1022B0006F937F938F939F93AF93BF93EF93FF930E
:1022C000E0910601F09107010995FF91EF91BF910F
:1022D000AF919F918F917F916F915F914F913F91BE
:1022E0002F910F900FBE0F901F901895CF93DF93F3
:1022F000282F30E0F901E052F34F8491F901EC50BE
:10230000F34FD491F901EE5EF24FC491CC2391F0DA
:1023100081110E944010EC2FF0E0EE0FFF1FE85FEC
:10232000F24FA591B491EC91ED2381E090E021F47E
:1023300080E002C080E090E0DF91CF9108951F938C
:10234000CF93DF93282F30E0F901E052F34F8491CF
:10235000F901EC50F34FD491F901EE5EF24FC491C4
:10236000CC23C9F0162F81110E944010EC2FF0E011
:10237000EE0FFF1FE257FA4FA591B4918FB7F89473
:10238000111105C09C91ED2FE095E92302C0EC915D
:10239000ED2BEC938FBFDF91CF911F910895CF93D9
:1023A000DF9390E0FC01EC50F34F2491FC01EE5ED2
:1023B000F24F8491882361F190E0880F991FFC010E
:1023C000E859FA4FC591D491FC01E257FA4FA59113
:1023D000B491611109C09FB7F89488812095822338
:1023E0008883EC912E230BC0623061F49FB7F89480
:1023F0003881822F809583238883EC912E2B2C9318
:102400009FBF06C08FB7F894E8812E2B28838FBF1B
:10241000DF91CF9108958F929F92AF92BF92CF920A
:10242000DF92EF92FF926B017C010E9469104B01D9
:102430005C01C114D104E104F104F1F00E946910BF
:10244000DC01CB0188199909AA09BB09883E934090
:10245000A105B10570F321E0C21AD108E108F10825
:1024600088EE880E83E0981EA11CB11CC114D10413
:10247000E104F10419F7DDCFFF90EF90DF90CF90EA
:10248000BF90AF909F908F9008952FB7F894609170
:102490008F027091900280919102909192022FBFD1
:1024A00008951F920F920FB60F9211242F933F930E
:1024B0008F939F93AF93BF9380918F0290919002DF
:1024C000A0919102B091920230918E0223E0230FED
:1024D0002D3720F40196A11DB11D05C026E8230F5C
:1024E0000296A11DB11D20938E0280938F029093BE
:1024F0009002A0939102B0939202809193029091E6
:102500009402A0919502B09196020196A11DB11D71
:102510008093930290939402A0939502B0939602B5
:10252000BF91AF919F918F913F912F910F900FBECF
:102530000F901F901895CF92DF92EF92FF920F931A
:102540001F93CF93DF930E94FC1882E08093600377
:1025500080917A0281113FC180917C0281110BC070
:1025600010925D0310925C0381E090E090935F0312
:1025700080935E030AC081E090E090935D038093B6
:102580005C0310925F0310925E0310925903109245
:10259000580310925B0310925A0368EC7CE08CE4C1
:1025A00093E00E94111080917C02813059F41092C6
:1025B0005D0310925C0381E090E090935F03809351
:1025C0005E030AC081E090E090935D0380935C031A
:1025D00010925F0310925E031092590310925803F9
:1025E00080E190E090935B0380935A0363EC7CE07E
:1025F0008CE493E00E94111080917C02823079F487
:1026000080917D0281110BC010925D0310925C03DA
:1026100081E090E090935F0380935E030AC081E0C5
:1026200090E090935D0380935C0310925F0310929F
:102630005E03109259031092580380E290E0909349
:102640005B0380935A036DEB7CE08CE493E00E9483
:10265000111080917C02823079F480917D0281306A
:1026600059F410925D0310925C0381E090E0909326
:102670005F0380935E030AC081E090E090935D0366
:1026800080935C0310925F0310925E038BE590E0F1
:10269000909359038093580380E290E090935B03FA
:1026A00080935A03609105018CE493E00E941C1909
:1026B00080917C02833079F480917D0281110BC07E
:1026C00010925D0310925C0381E090E090935F03B1
:1026D00080935E030AC081E090E090935D03809355
:1026E0005C0310925F0310925E03109259031092E4
:1026F000580380E390E090935B0380935A038091AA
:102700007B02811132C068EB7CE08CE493E00E9494
:10271000111080917C02833079F480917D028130A8
:1027200059F410925D0310925C0381E090E0909365
:102730005F0380935E030AC081E090E090935D03A5
:1027400080935C0310925F0310925E038BE590E030
:10275000909359038093580380E390E090935B0338
:1027600080935A036091040131C063EB7CE08CE4F8
:1027700093E00E94111080917C02833079F4809163
:102780007D02813059F410925D0310925C0381E068
:1027900090E090935F0380935E030AC081E090E035
:1027A00090935D0380935C0310925F0310925E032D
:1027B0008BE590E0909359038093580380E390E079
:1027C00090935B0380935A03609103018CE493E040
:1027D0000E941C19B5C1813009F002C181E090E06E
:1027E00090935D0380935C0310925F0310925E03ED
:1027F000109259031092580310925B0310925A03DF
:102800006BEA7CE08CE493E00E9411101092590373
:102810001092580380E190E090935B0380935A03F9
:1028200062EA7CE08CE493E00E941110109259035C
:1028300010925803C0E2D0E0D0935B03C0935A03D8
:102840006FE97CE08CE493E00E94111088E190E055
:102850009093590380935803D0935B03C0935A031A
:102860000E948E10AC01990F660B770B8CE493E0FD
:102870000E94351960E671E08CE493E00E94BB1081
:102880000E948E10092E000CAA0BBB0B40918A02ED
:1028900050918B0260918C0270918D02840F951F74
:1028A000A61FB71F80938A0290938B02A0938C027D
:1028B000B0938D028091860290918702A091880248
:1028C000B09189020196A11DB11D8093860290935B
:1028D0008702A0938802B09389028CE390E09093E2
:1028E000590380935803D0935B03C0935A036CE958
:1028F0007CE08CE493E00E94111010925903109236
:102900005803C0E3D0E0D0935B03C0935A036AE955
:102910007CE08CE493E00E9411108CE690E09093B0
:10292000590380935803D0935B03C0935A0368E91B
:102930007CE08CE493E00E94111080917B02811175
:1029400026C00E94451200913C0310913D03209146
:102950003E0330913F036B017C01C01AD10AE20AA9
:10296000F30A23E0CC0CDD1CEE1CFF1C2A95D1F7EA
:102970002091040130E0A8EEB3E00E9416239B01F1
:10298000AC01C701B6010E94F42269010CC080911C
:10299000790228E0829FC00111246091030170E058
:1029A0000E945E246B010CE010E0C0E0D0E090E3F8
:1029B000E92EF12CCC15DD050CF0C2C02196109348
:1029C000590300935803F0925B03E0925A0366E9BF
:1029D0007CE08CE493E00E941110045F1F4FEACF6B
:1029E000833009F0ADC081E090E090935D03809367
:1029F0005C0310925F0310925E03109259031092D1
:102A0000580310925B0310925A036BE87CE08CE44D
:102A100093E00E9411101092590310925803C0E1E4
:102A2000D0E0D0935B03C0935A0363E87CE08CE46E
:102A300093E00E94111084E590E0909359038093F5
:102A40005803D0935B03C0935A0360918A0270913C
:102A50008B0280918C0290918D02209186023091A0
:102A6000870240918802509189020E94D522BA01C2
:102A7000A9018CE493E00E94351960E671E08CE4D2
:102A800093E00E94BB101092590310925803C0E2C9
:102A9000D0E0D0935B03C0935A0360E87CE08CE401
:102AA00093E00E94111084E2E82EF12CF092590379
:102AB000E0925803D0935B03C0935A03609179026C
:102AC0008CE493E00E941C1908E410E01093590371
:102AD00000935803D0935B03C0935A036BE77CE0E9
:102AE0008CE493E00E941110109259031092580345
:102AF000C0E3D0E0D0935B03C0935A0368E77CE067
:102B00008CE493E00E941110F0925903E092580374
:102B1000D0935B03C0935A03609178028CE493E0F6
:102B20000E941C191093590300935803D0935B0320
:102B3000C0935A0366E77CE08CE493E00E94111096
:102B4000DF91CF911F910F91FF90EF90DF90CF9089
:102B50000C94CE19DC01ED91FD918081ED91FD91F8
:102B60009081ED91FD916C9163708E2309F064600A
:102B70009F2309F06860E7ECF5E1E60FF11D65952C
:102B800065956D936D917D918D919D91099423C073
:102B90001AC012C016C010C01EC009C014C013C095
:102BA00006C019C009C00DC007C00DC014C06250D6
:102BB0007040804090400BC0615070408040904019
:102BC00006C06E5F01C06F5F7F4F8F4F9F4F9E9318
:102BD0008E937E936E93089580913A0390913B0378
:102BE0000C94AA1580913803909139030C94AA157E
:102BF0000F931F93CF93DF9377FF04C0260F371FE8
:102C000060E070E0DC011496CD91DC911597FB013A
:102C1000E20FF31FCE17DF071CF49E01261B370BB4
:102C2000121613060CF046C0FA0157FD3796DF0165
:102C3000E3E0B595A795EA95E1F7AC9FF001AD9F6C
:102C4000F00DBC9FF00D11246E0F7F1FDC015E960E
:102C5000ED91FC915F97E60FF71F4770552781E0D4
:102C600090E001C0880F4A95EAF7482F013011051E
:102C700039F078F002301105E9F42E0F3F1F13C030
:102C80002E0F3F1FE217F307A9F08081842B819359
:102C9000F9CF80952E0F3F1FE217F30759F090816F
:102CA00098239193F9CFE217F30721F080818427CD
:102CB0008193F9CFDF91CF911F910F910895EF92FA
:102CC000FF920F931F93CF93DF93EC0177FDA4C086
:102CD000EC80FD806E157F050CF09EC057FF04C090
:102CE000240F351F40E050E08E819F81FA01E20FF2
:102CF000F31F8E179F071CF49C01241B350B121623
:102D000013060CF089C0922F842F869586958695A0
:102D10008E9DD0018F9DB00D11246A0F7B1FAE8D4B
:102D2000BF8DA60FB71F4770A9F188E0841B482FFD
:102D3000682F70E0FB01ED52F34FE491281790F4F7
:102D4000621B71092FEF30E002C0359527956A9517
:102D5000E2F7E2230130110541F070F00230110575
:102D600079F05AC00130110519F48C91E82B0AC092
:102D70000130110508F049C0E0958C91E82302C0AC
:102D80008C91E827EC932C813D81941708F444C082
:102D9000A20FB31FE92FE41BE830F8F00230110551
:102DA00061F48E2F9C9190959C932C813D81A20F74
:102DB000B31F88508830B0F70FC081E001151105AE
:102DC00009F480E081959E2F8C932C813D81A20F88
:102DD000B31F98509830C0F7E770EE23E9F0F0E0A9
:102DE000E553F34FE4910130110539F048F002301A
:102DF000110591F48C91E82706C08C91E82B03C053
:102E0000E0958C91E823EC9307C00230110509F49A
:102E1000B7CFAE0DBF1DBECFDF91CF911F910F91E8
:102E2000FF90EF9008950F931F93CF93DF93DC01F2
:102E30005596EC915597E23071F0E330E9F0E130CE
:102E400079F5FB0114960D90BC91A02DA41BB50B38
:102E5000A21BB30B18C0EC01EC81FD81E61BF70B44
:102E6000BF0161507109EE81FF81DF01A41BB50B29
:102E7000AD01421B530B14C0DA01EC01EE81FF815E
:102E8000E61BF70B3197F7FD0DC0EC014E815F811A
:102E9000E417F5073CF4AF01BD010E94F81502C02C
:102EA0000E945F16DF91CF911F910F9108950F93AC
:102EB0001F93DC015596EC915597E23061F0E330B9
:102EC00009F1E13081F51496ED91FC911597E41B21
:102ED000F50B319723C0DC011496ED91FC91159709
:102EE000DF01A61BB70BBD01DC011696ED91FC912D
:102EF0001797DF01A41BB50BAD0141505109621BAF
:102F0000730B11C0FA01DC0116964D915C91179775
:102F1000DA01A61BB70BBD01621B730BAB01BF012E
:102F20000E945F160CC057FD0AC0DC011696ED9199
:102F3000FC9117974E175F0714F40E94F8151F9124
:102F40000F910895FC0177FDB9C0808591856817C0
:102F500079070CF0B3C057FDB1C08285938548173F
:102F600059070CF008958589823079F48481958120
:102F7000DC01A61BB70BBD016150710986819781E9
:102F8000DC01A41BB50BAD010EC0833009F084C079
:102F900064277527CB0184279527682779274681E1
:102FA0005781481B590B415051092130310531F0EF
:102FB00048F12230310509F44AC00895CA0157FD8D
:102FC00007969C01A3E035952795AA95E1F7A48182
:102FD000B5812A9FC0012B9F900D3A9F900D11241F
:102FE000680F791F068CF78DE02DE60FF71F4770ED
:102FF000552781E090E001C0880F4A95EAF790815B
:10300000892B48C0CA0157FD07969C0193E035956E
:1030100027959A95E1F7A481B5812A9FC0012B9F3E
:10302000900D3A9F900D1124680F791F068CF78D33
:10303000E02DE60FF71F4770552781E090E001C0B3
:10304000880F4A95EAF780959081892323C0CA01A9
:1030500057FD07969C0183E0359527958A95E1F702
:10306000A481B5812A9FC0012B9F900D3A9F900D9E
:103070001124680F791F068CF78DE02DE60FF71FDE
:103080004770552781E090E001C0880F4A95EAF724
:103090009081892780830895813009F086CF642745
:1030A0007527462757276427752784819581DC017A
:1030B000A61BB70BBD016150710977CF08953F92F0
:1030C0004F925F926F927F928F929F92AF92BF9238
:1030D000CF92DF92EF92FF920F931F93CF93DF93E4
:1030E000CDB7DEB728970FB6F894DEBF0FBECDBFC1
:1030F0006C017E836D832A013901DC01ED91FC9125
:103100000284F385E02D0995C801079697FD07967F
:10311000FC0193E0F595E7959A95E1F7FA83E98349
:10312000812C912CA12CB12C312CC501840D951D25
:103130009C838B83AE14BF040CF03FC018861F82A3
:10314000EF81F885E017F10784F58F819885877006
:103150009927892B11F0330C0EC0EF81F885F7FD0C
:10316000379683E0F595E7958A95E1F7E80DF91D27
:10317000E60DF71D349037FE12C0D601ED91FC919B
:103180000484F585E02D21E030E04B815C816D8188
:103190007E818F819885680F791FC6010995AF815F
:1031A000B8851196B887AF83CBCFFFEFAF1ABF0AB0
:1031B00029813A81820E931EB8CFD601ED91FC9100
:1031C0000688F789E02DC60128960FB6F894DEBF71
:1031D0000FBECDBFDF91CF911F910F91FF90EF9068
:1031E000DF90CF90BF90AF909F908F907F906F9027
:1031F0005F904F903F900994209152033091530378
:10320000C901079697FD079623E0959587952A951E
:10321000E1F72091500330915103829FA001839FD9
:10322000500D929F500D112460E070E080916A0370
:1032300090916B030C9457240F931F93CF93DF93BC
:10324000EC01462F50E060E070E02AE00E94C80FD9
:103250008C0160E671E0CE010E94BB10800F911FCF
:10326000DF91CF911F910F910895CF92DF92EF924E
:10327000FF920F931F93CF93DF9377FF21C06A01D3
:103280007B01EC01E881F9810190F081E02D6DE294
:1032900009958C0144275527BA014C195D096E091F
:1032A0007F092AE0CE010E94C80F800F911FDF9195
:1032B000CF911F910F91FF90EF90DF90CF900895E5
:1032C0002AE0DF91CF911F910F91FF90EF90DF9057
:1032D000CF900C94C80F1F93CF93DF93FC01848D84
:1032E000958D009729F1162FEF0120A131E0309341
:1032F0009A02209399021092980210929702DC0190
:10330000ED91FC910190F081E02D60E009958C8DAC
:103310009D8DDC01ED91FC910190F081E02D612FFC
:1033200009958C8D9D8DDF91CF911F910C946D0E21
:10333000A4A5B5A59C9182A9809589238C93828DA3
:10334000938D892B31F0862FDF91CF911F910C94B3
:10335000210D28E030E080E8A0A5B1A590A9482F74
:10336000462319F04C91942B03C04C9190959423D3
:103370009C93A2A5B3A54C9191A9942B9C93A2A533
:10338000B3A54C9191A9909594239C938695215037
:10339000310911F7DF91CF911F910895CF92DF92FC
:1033A000EF92FF920F931F93CF93DF931F92CDB7AE
:1033B000DEB78091680390916903892B59F0609181
:1033C00082037091830380918403909185030E940E
:1033D000590E16C08091660390916703892B31F0D6
:1033E00080918003909181030E94280DE0917A03DF
:1033F000F0917B03908180917F0380958923808366
:1034000065E08BED9CE00E94B31B6091500361501E
:103410008CE493E00E946B19209152033091530386
:10342000C901079697FD079623E0959587952A95FC
:10343000E1F72091500330915103829F8001839FD7
:10344000100D929F100D1124E0906A03F0906B0311
:1034500080916803909169030E0D1F1D009709F478
:103460004EC020916C0331E030939A022093990270
:103470001092980210929702DC01ED91FC9101905C
:10348000F081E02D60E40995670121E0FF24F394C9
:103490008091680390916903C016D10669F12032CA
:1034A000C8F00E946D0E80916C03F0929A02809396
:1034B000990210929802109297028091680390915D
:1034C0006903DC01ED91FC910190F081E02D60E455
:1034D000099521E08091680390916903F60161915B
:1034E0006F01DC01ED91FC910190F081E02D2983C9
:1034F000099529812F5FCCCF0E946D0E43C0E091CA
:103500007803F0917903908180917E03892B8083E9
:10351000E016F106B9F1F70181917F012091660370
:1035200030916703232B19F00E94210DF1CF28E081
:1035300030E040E8E0917403F091750390917C03D2
:10354000542F582319F05081952B03C0508190952A
:1035500095239083E0917603F091770350819091C9
:103560007D03952B9083E0917603F0917703508152
:1035700090917D0390959523908346952150310934
:10358000C9F6C6CF8091680390916903892B99F0A1
:1035900060918603709187038091880390918903DD
:1035A0000F90DF91CF911F910F91FF90EF90DF90DF
:1035B000CF900C94590EE0917A03F0917B039081A7
:1035C00080917F03892B80838091660390916703AC
:1035D000892B59F00F90DF91CF911F910F91FF90A0
:1035E000EF90DF90CF900C94200D0F90DF91CF9152
:1035F0001F910F91FF90EF90DF90CF9008951F9350
:10360000CF93DF93EC01162F8C8D9D8D892B39F094
:103610006EA97FA988AD99AD0E94590E0FC08A8D01
:103620009B8D892B21F08CA99DA90E94280DEEA5C8
:10363000FFA590818BA9809589238083111102C0F9
:1036400066EA01C067EACE010E946B198C8D9D8DE0
:10365000892B49F06AAD7BAD8CAD9DADDF91CF91EB
:103660001F910C94590EEEA5FFA590818BA9892B73
:1036700080838A8D9B8D892B29F0DF91CF911F91BB
:103680000C94200DDF91CF911F910895CF93DF937C
:10369000EC0161E086E00E94CF11209711F460E018
:1036A00004C0CF3FD10531F461E086E0DF91CF91D6
:1036B0000C949F11E6EEFCE0E491E330F9F048F45D
:1036C000E130B9F0E230A1F584B5806284BDC8BDB7
:1036D00034C0E730E9F0E83019F1E43049F5809181
:1036E0008000806280938000D0938B00C0938A001A
:1036F00024C084B5806884BDC7BD1FC08091800090
:10370000806880938000D0938900C093880015C0A2
:103710008091B00080688093B000C093B3000DC06A
:103720008091B00080628093B000C093B40005C067
:10373000C038D1050CF0B8CFB2CFDF91CF9108954A
:10374000CF93DF93BC018BE992E00E94BB10EC01A8
:1037500060E671E08BE992E00E94BB108C0F9D1F28
:10376000DF91CF910895FF920F931F93CF93DF9333
:10377000EC01F62E8091680390916903009709F49B
:1037800051C020916C0331E030939A02209399024A
:103790001092980210929702DC01ED91FC91019039
:1037A000F081E02D60E009958E01D1E0CF0DFF247E
:1037B000F3948091680390916903C01761F1D0324E
:1037C000C8F00E946D0E80916C03F0929A02809373
:1037D000990210929802109297028091680390913A
:1037E0006903DC01ED91FC910190F081E02D60E036
:1037F0000995D1E08091680390916903F801649183
:10380000DC01ED91FC910190F081E02D0995DF5FE5
:103810000F5F1F4FCECFDF91CF911F910F91FF9080
:103820000C946D0EE0917803F091790320818091E2
:103830007E038095822380838E01C60FC017C1F15D
:10384000F80184912091660330916703232B19F0CE
:103850000E94210D2AC028E030E040E8E091740386
:10386000F091750390917C03542F582319F05081E7
:10387000952B03C05081909595239083E09176031A
:10388000F0917703508190917D03952B9083E09187
:103890007603F0917703508190917D039095952365
:1038A0009083469521503109C9F60F5F1F4FC6CF4F
:1038B000DF91CF911F910F91FF900895789484B577
:1038C000826084BD84B5816084BD85B5826085BD1C
:1038D00085B5816085BD80916E00816080936E00AA
:1038E000109281008091810082608093810080919C
:1038F000810081608093810080918000816080934D
:1039000080008091B10084608093B1008091B0000C
:1039100081608093B00080917A00846080937A0007
:1039200080917A00826080937A0080917A00816031
:1039300080937A0080917A00806880937A00109258
:10394000C100E091AB02F091AC0282E08083E09193
:10395000AB02F091AC021082E091A702F091A802B4
:103960001082E091A902F091AA0280E18083109276
:10397000B302E091AF02F091B00286E08083E09163
:10398000AD02F091AE02808180618083E091AD0252
:10399000F091AE02808188608083E091AD02F09169
:1039A000AE02808180688083E091AD02F091AE022A
:1039B00080818F7D808380916A0390916B03892B36
:1039C00041F52091520330915303C901079697FDA9
:1039D000079623E0959587952A95E1F72091500366
:1039E00030915103AC01429FC001439F900D529F03
:1039F000900D11240E94252390936B0380936A03FA
:103A0000892B39F46CE57CE08BE992E00E9411107F
:103A1000FFCF0E94FC188091520390915303609154
:103A200050037091510381329105CCF0AC014054A8
:103A3000510957FF02C04F5F5F4F5595479562553B
:103A4000710977FF02C06F5F7F4F7595679500E43E
:103A5000E02EF12C02E510E028E737E018C0AC01B9
:103A60004052510957FF02C04F5F5F4F5595479530
:103A70006357710977FF02C06F5F7F4F7595679538
:103A8000C0E2EC2EF12C03E710E028E935E08CE4ED
:103A900093E00E945F1882E080936D038091680339
:103AA00090916903892B59F18CE380936C031092F8
:103AB000E9011092E8011092980210929702109278
:103AC000EA0181E08093EC011092EB0161E082E178
:103AD0000E949F1161E083E10E949F118091B900D3
:103AE0008E7F8093B9008091B9008D7F8093B9005B
:103AF00088E48093B80085E48093BC00BEC061E098
:103B0000809171030E94CF1161E0809172030E9445
:103B1000CF1180917103082E000C990BFC01EE5E11
:103B2000F24FE491F0E0EE0FFF1FE257FA4F2591BC
:103B300034913093790320937803FC01EC50F34FD8
:103B4000E491E0937E0380917203082E000C990BA0
:103B5000FC01EE5EF24FE491F0E0EE0FFF1FE25742
:103B6000FA4FA591B491B0937B03A0937A03FC0123
:103B7000EC50F34FE491E0937F038C91E82BEC93AE
:103B80008091660390916703892B09F434C0CFB705
:103B9000F89480917E02811127C0ECE1FDE08491D0
:103BA000EEEFFCE09491E82FF0E0EE0FFF1FE859F4
:103BB000FA4FA591B491EC91E92321F461E08AE0F8
:103BC0000E949F1161E08AE00E94CF118CB5806154
:103BD0008CBD8CB580648CBD61E08DE00E94CF11FE
:103BE00061E08BE00E94CF1180917E028F5F809315
:103BF0007E02CFBF42C061E080916F030E94CF116F
:103C000061E0809170030E94CF1180916F03082EB4
:103C1000000C990BFC01EE5EF24FE491F0E0EE0F28
:103C2000FF1FE257FA4F259134913093750320938B
:103C30007403FC01EC50F34FE491E0937C0380911A
:103C40007003082E000C990BFC01EE5EF24FE4911C
:103C5000F0E0EE0FFF1FE257FA4FA591B491B09339
:103C60007703A0937603FC01EC50F34FE491E093CB
:103C70007D038C91E095E823EC938091730387FD9D
:103C80001EC061E00E94CF1161E0809173030E9429
:103C90009F1161E070E080E090E00E940B1260E014
:103CA000809173030E949F116AE070E080E090E0D1
:103CB0000E940B1261E0809173030E949F1180911A
:103CC000680390916903892B59F060918203709188
:103CD000830380918403909185030E94590E16C03E
:103CE0008091660390916703892B31F08091800366
:103CF000909181030E94280DE0917A03F0917B035B
:103D0000908180917F0380958923808364E08AE895
:103D100095E00E94B31B6091520361508CE493E0E4
:103D20000E946B1964E086E895E00E94B31B8091C5
:103D30006D03813011F064E101C060E18CE493E037
:103D40000E946B1964E082E895E00E94B31B8091A9
:103D500050039091510380389105E9F4809152030A
:103D6000909153038032910531F464E08EE795E041
:103D70000E94B31B29C08034910531F563E08BE7C5
:103D800095E00E94B31B80916D03813011F06FECC0
:103D900017C06FE915C080369105B1F480915203C8
:103DA00090915303409781F463E088E795E00E9487
:103DB000B31B80916D03813011F06FEA01C060E1A7
:103DC0008CE493E00E946B1969ED8CE493E00E940F
:103DD0006B1980916D03813011F061EF01C062E2D7
:103DE0008CE493E00E946B1966E082E795E00E9404
:103DF000B31B8091680390916903892B59F06091FE
:103E000086037091870380918803909189030E94B3
:103E1000590E11C0E0917A03F0917B03908180915B
:103E20007F03892B80838091660390916703892BA0
:103E300011F00E94200D0E94FC1880915603909171
:103E40005703AC014054510957FF02C04F5F5F4F09
:103E50005595479590E4E92EF12C00E410E02CE50F
:103E60003AE060E070E08CE493E00E945F1881E04B
:103E70008093600381E090E090935F0380935E0302
:103E800090935D0380935C03C0E5D0E0D093590329
:103E9000C093580310925B0310925A0363E57AE0D3
:103EA0008CE493E00E9411108CE590E0909359030C
:103EB0008093580388E090E090935B0380935A03CB
:103EC0006CE47AE08CE493E00E94111082E690E0CA
:103ED000909359038093580380E190E090935B03A3
:103EE00080935A0366E47AE08CE493E00E94111018
:103EF00088E690E090935903809358038FE290E016
:103F000090935B0380935A0361E47AE08CE493E03E
:103F10000E941110D0935903C093580388E390E096
:103F200090935B0380935A0368E37AE08CE493E018
:103F30000E9411100E94CE1961E086E00E94CF110C
:103F400080E090E00E94461B62E088E00E94CF1172
:103F500062E08CE00E94CF1183E080930001C0E01A
:103F6000D1E024E0422E512C612C712C02E013E0B0
:103F700038EE832E33E0932EA12CB12C8091950343
:103F8000823030F4F8948AE893E00E94AA1501C0C8
:103F9000F894C0909103D0909203E0909303F09036
:103FA000940378948091820290918302A09184027C
:103FB000B0918502C816D906EA06FB0609F49AC034
:103FC000B701A6018BE992E00E94351960E671E025
:103FD0008BE992E00E94BB10809182024C2D481B1D
:103FE00080917D0290917C0281112CC08091810290
:103FF000480F842F47FF02C083E0840F8595859585
:10400000980F937090937C02437847FF03C0415010
:104010004C6F4F5F40938102042E000C550B660BD2
:10402000770B8BE992E00E94351963E671E08BE92A
:1040300092E00E94BB1060917C028BE992E00E94AA
:104040001C194EC030918002340F9230A1F480913F
:10405000050190E0232F37FF02C023E0230F2595B1
:104060002595820F911D27FD9A95BE010E945E2421
:10407000809305012DC0933059F580917B02811109
:1040800014C08091040190E0232F37FF02C023E089
:10409000230F25952595820F911D27FD9A95BE0129
:1040A0000E945E248093040113C08091030190E07C
:1040B000232F37FF02C023E0230F25952595820F7C
:1040C000911D27FD9A95BE010E945E2480930301F5
:1040D000337837FF03C031503C6F3F5F309380022D
:1040E000C0928202D0928302E0928402F092850212
:1040F0000E949B128CE00E94761180937F028111B6
:104100004AC0F090020151E0F51245C06BE671E043
:104110008BE992E00E94BB1080917D02F81AF09228
:104120007D0280917C0281110DC080917A02811103
:1041300003C000937A0206C010927A0280E090E0F9
:104140000E94461B80919503823030F4F8948AE8EF
:1041500093E00E94AA1501C0F894609191037091B8
:10416000920380919303909194037894A301920118
:104170000E94D522609380026093810280917D022B
:10418000811103C088E791E002C08AE891E00E94B3
:10419000A01B0E949B1280917F0280930201F090ED
:1041A0007D0281E0F8128AC080917C02882359F058
:1041B000813009F081C090917B02891B80937B0242
:1041C00010927D0279C080917A02833009F46BC02D
:1041D0008230A1F40E94451260933C0370933D032A
:1041E00080933E0390933F031092790280910501E2
:1041F00090E00E94461BF0927A0255C0813009F08F
:1042000054C080917B0281112AC00E9445126B012B
:104210007C0130900401232D30E0A8EEB3E00E9431
:10422000162320913C0330913D0340913E03509171
:104230003F03DC01CB01820F931FA41FB51F8C1518
:104240009D05AE05BF0578F580E090E00E94461B15
:1042500010937A02309278028EE991E022C0909118
:104260007902809103019817F0F080E090E00E94BD
:10427000461B10937A020E944512C0903C03D090D6
:104280003D03E0903E03F0903F036C197D098E09D9
:104290009F09A50194010E94F422209378028CEAE0
:1042A00091E00E94A01B81E005C080E090E00E94A8
:1042B000461B80E080937D020E949B1288E00E9452
:1042C000761180937F02811111C0809101018130AC
:1042D00069F48AEC91E00E94A01B80917A028130FF
:1042E00029F4809179028F5F8093790280917F0217
:1042F000809301010E94070F41CE88E391E09093E3
:104300004D0380934C0380916A0390916B03009757
:1043100011F00C94BA230895CF93DF9310924303C6
:104320001092420388EE93E0A0E0B0E08093440353
:1043300090934503A0934603B093470324E131E0F3
:10434000309341032093400310929E0210929D02ED
:1043500080939F029093A002A093A102B093A20227
:1043600086E291E090939C0280939B0285EC90E022
:104370009093A8028093A70284EC90E09093AA0205
:104380008093A90280EC90E09093AC028093AB0202
:1043900081EC90E09093AE028093AD0282EC90E0CD
:1043A0009093B0028093AF0286EC90E09093B202BB
:1043B0008093B1021092B4021092B5021092B6022C
:1043C0001092B70262E083E00E94CF1162E082E0C7
:1043D0000E94CF11E5E1FDE0E491F0E0EE0FFF1F58
:1043E000E85FF24FA591B491B0938B03A0938A0339
:1043F000E7EFFCE0849180938E03E4E1FDE0E4913B
:10440000F0E0EE0FFF1FE85FF24FC591D491D0931B
:104410008D03C0938C03E6EFFCE0E491E0938F03FF
:1044200010929103109292031092930310929403AE
:10443000EBE3FFE13197F1F7EC91E82381E009F438
:1044400080E0288190918F03922309F082602AE80E
:1044500033E08093900330933B0320933A038CEE38
:1044600095E1909309018093080180916900837F11
:10447000846080936900E99A91E09093950330936A
:1044800039032093380322EF35E13093070120935D
:104490000601809169008C7F816080936900E89AB1
:1044A00082E08093950310924F0310924E0340E8F0
:1044B00050E0509351034093500320E430E0309398
:1044C0005303209352035093550340935403309366
:1044D00057032093560310926103109259031092D0
:1044E000580310925B0310925A03909360032FEFCE
:1044F0003FEF30935F0320935E0330935D0320937F
:104500005C03909362031092630310926503109210
:10451000640388E391E090934D0380934C031092E1
:1045200067031092660380E493E09093690380939D
:10453000680310926B0310926A038FEF80936F03EE
:10454000809370038093710380937203809373034D
:1045500080E5809380031092810380E89AE1A6E0D1
:10456000B0E08093820390938303A0938403B0937D
:10457000850380EA96E8A1E0B0E0809386039093FB
:104580008703A0938803B09389030E944512609328
:104590003C0370933D0380933E0390933F03DF9170
:1045A000CF910895F8940C949324052E97FB1EF454
:1045B00000940E94EC2257FD07D00E94F42207FCD1
:1045C00003D04EF40C94EC225095409530952195F3
:1045D0003F4F4F4F5F4F089590958095709561952F
:1045E0007F4F8F4F9F4F0895A1E21A2EAA1BBB1B2E
:1045F000FD010DC0AA1FBB1FEE1FFF1FA217B307AF
:10460000E407F50720F0A21BB30BE40BF50B661FC4
:10461000771F881F991F1A9469F760957095809588
:1046200090959B01AC01BD01CF010895A29FB001FF
:10463000B39FC001A39F700D811D1124911DB29FD6
:10464000700D811D1124911D0895CF93DF93823049
:10465000910510F482E090E0E0919803F0919903C5
:1046600020E030E0C0E0D0E0309711F1408151818E
:1046700048175907C0F04817590761F482819381A0
:10468000209719F09B838A832BC090939903809382
:10469000980326C02115310519F04217530718F465
:1046A0009A01BE01DF01EF010280F381E02DDCCF32
:1046B0002115310509F1281B390B2430310590F4FF
:1046C00012968D919C9113976115710521F0FB0154
:1046D0009383828304C09093990380939803FD0190
:1046E000329644C0FD01E20FF31F81939193225053
:1046F00031092D933C933AC0209196033091970352
:10470000232B41F420910C0130910D01309397033C
:104710002093960320910A0130910B012115310558
:1047200041F42DB73EB740910E0150910F01241B6B
:10473000350BE0919603F0919703E217F307A0F48D
:104740002E1B3F0B2817390778F0AC014E5F5F4FE7
:104750002417350748F04E0F5F1F5093970340937F
:1047600096038193919302C0E0E0F0E0CF01DF91E6
:10477000CF9108950F931F93CF93DF93009709F480
:104780008CC0FC0132971382128200919803109121
:1047900099030115110581F420813181820F931F46
:1047A00020919603309197032817390779F5F093F4
:1047B0009703E093960371C0D80140E050E0AE1734
:1047C000BF0750F412962D913C911397AD0121151E
:1047D000310509F1D901F3CF9D01DA013383228339
:1047E00060817181860F971F8217930769F4EC012E
:1047F00028813981260F371F2E5F3F4F3183208359
:104800008A819B8193838283452B29F4F0939903BA
:10481000E093980342C01396FC93EE931297ED0138
:10482000499159919E01240F351FE217F30771F446
:1048300080819181840F951F029611969C938E938F
:104840008281938113969C938E931297E0E0F0E01F
:10485000D80112968D919C911397009719F0F80149
:104860008C01F6CF8D919C9198012E5F3F4F820F66
:10487000931F20919603309197032817390769F405
:10488000309729F4109299031092980302C0138272
:1048900012821093970300939603DF91CF911F919B
:1048A0000F91089581E090E0F8940C949324DC013A
:1048B00001C06D9341505040E0F7089597FB072EDB
:1048C00016F4009407D077FD09D00E94792407FCE4
:1048D00005D03EF4909581959F4F08957095619510
:1048E0007F4F08950E941623B7FF0895821B930BF4
:1048F0000895AA1BBB1B51E107C0AA1FBB1FA61727
:10490000B70710F0A61BB70B881F991F5A95A9F778
:1049100080959095BC01CD010895EE0FFF1F059085
:10492000F491E02D099416E0C4E9D6E004C0FE013C
:104930000E948D242196C539D107C9F7F894FFCF7D
:104940000101010A0AFF3F103F1000009A03800096
:1049500000000000F10CC10C3C109B0CB90CAA0C1F
:104960009C0C000000005F0F110FCA0EA60FFB0E7B
:10497000D90EED0E00000000EB08110F3C103B10AB
:10498000A217BE0BB70B8F0BAB0B9F0BBF0B8E0B86
:10499000C006FF1A13175717B50A970A200AC1094C
:1049A0000D0A00096D656E75203A007377697463AE
:1049B000682074726967200053657420746F206DDD
:1049C000656E752073656C65630053657420746F44
:1049D000206368616E67652076616C756500746937
:1049E0006D652066696E6973686564007265766FCF
:1049F0006C7574696F6E73206E6220746172676586
:104A0000742072656163686564006D6F746F7220F5
:104A100072657620636F756E746572207377697442
:084A20006368207472696700ED
:00000001FF
